{
  "transactions": [
    {
      "hash": "0x1f2d7bf12dfaab243411207405b320a7f3089d8c08f88ed0d05aaf0ffc1951e4",
      "transactionType": "CALL",
      "contractName": null,
      "contractAddress": "0x6738828760e8d2eb8cd892c5a15ad5d994d7995c",
      "function": "createMarket(address,uint256)",
      "arguments": [
        "0x7928251fE2D52CBECDCe0Fe9551aD9BF798347bc",
        "5000000000000000000000000"
      ],
      "transaction": {
        "from": "0x7928251fe2d52cbecdce0fe9551ad9bf798347bc",
        "to": "0x6738828760e8d2eb8cd892c5a15ad5d994d7995c",
        "gas": "0x314b9",
        "value": "0x0",
        "input": "0x34b62dd90000000000000000000000007928251fe2d52cbecdce0fe9551ad9bf798347bc0000000000000000000000000000000000000000000422ca8b0a00a425000000",
        "nonce": "0x1f",
        "chainId": "0x61"
      },
      "additionalContracts": [],
      "isFixedGasLimit": false
    },
    {
      "hash": "0x499d234580409f704fb040ab632f2fd398a1e96f0bef6f8bd601bbc4bf8011ce",
      "transactionType": "CALL",
      "contractName": null,
      "contractAddress": "0x74f964e2bda482ae78834ff4f4fbc892e1b6aa33",
      "function": "configurePricing(uint256,address,uint256,uint256,uint256)",
      "arguments": [
        "1",
        "0x7928251fE2D52CBECDCe0Fe9551aD9BF798347bc",
        "3600",
        "1000",
        "50000000000000000000000000"
      ],
      "transaction": {
        "from": "0x7928251fe2d52cbecdce0fe9551ad9bf798347bc",
        "to": "0x74f964e2bda482ae78834ff4f4fbc892e1b6aa33",
        "gas": "0x29eab",
        "value": "0x0",
        "input": "0xdfe383bc00000000000000000000000000000000000000000000000000000000000000010000000000000000000000007928251fe2d52cbecdce0fe9551ad9bf798347bc0000000000000000000000000000000000000000000000000000000000000e1000000000000000000000000000000000000000000000000000000000000003e8000000000000000000000000000000000000000000295be96e64066972000000",
        "nonce": "0x20",
        "chainId": "0x61"
      },
      "additionalContracts": [],
      "isFixedGasLimit": false
    },
    {
      "hash": "0x36874e5c4068969d38791e9e1725ff2abd84d89740bfb10ded6e35be5710dd6d",
      "transactionType": "CALL",
      "contractName": null,
      "contractAddress": "0xa6ec543c82c564f9cdb9a7e7682c68a43d1af802",
      "function": "configureFunding(uint256,uint256,uint256,uint256)",
      "arguments": [
        "1",
        "125000000000000",
        "3600",
        "500000000000000000000000"
      ],
      "transaction": {
        "from": "0x7928251fe2d52cbecdce0fe9551ad9bf798347bc",
        "to": "0xa6ec543c82c564f9cdb9a7e7682c68a43d1af802",
        "gas": "0x29cbd",
        "value": "0x0",
        "input": "0x8433036e0000000000000000000000000000000000000000000000000000000000000001000000000000000000000000000000000000000000000000000071afd498d0000000000000000000000000000000000000000000000000000000000000000e100000000000000000000000000000000000000000000069e10de76676d0800000",
        "nonce": "0x21",
        "chainId": "0x61"
      },
      "additionalContracts": [],
      "isFixedGasLimit": false
    },
    {
      "hash": "0xfe948e26603e0fd93a22958994146af97776acaafb69b5c732820522d6b15e04",
      "transactionType": "CALL",
      "contractName": null,
      "contractAddress": "0x833d02521a41f175c389ec2a8c86f22e3de524db",
      "function": "setRiskParams(uint256,uint256,uint256,uint256,uint256,uint256,uint256,uint256)",
      "arguments": [
        "1",
        "1000",
        "500",
        "10",
        "50000000000000000",
        "500000000000000000",
        "800000000000000000",
        "500"
      ],
      "transaction": {
        "from": "0x7928251fe2d52cbecdce0fe9551ad9bf798347bc",
        "to": "0x833d02521a41f175c389ec2a8c86f22e3de524db",
        "gas": "0x50c7e",
        "value": "0x0",
        "input": "0x30051dae000000000000000000000000000000000000000000000000000000000000000100000000000000000000000000000000000000000000000000000000000003e800000000000000000000000000000000000000000000000000000000000001f4000000000000000000000000000000000000000000000000000000000000000a00000000000000000000000000000000000000000000000000b1a2bc2ec5000000000000000000000000000000000000000000000000000006f05b59d3b200000000000000000000000000000000000000000000000000000b1a2bc2ec50000000000000000000000000000000000000000000000000000000000000000001f4",
        "nonce": "0x22",
        "chainId": "0x61"
      },
      "additionalContracts": [],
      "isFixedGasLimit": false
    },
    {
      "hash": "0x1c65ca9277f9d7c067f01f7647938b25d28e1892de12dc9985ef0b8f2c50212e",
      "transactionType": "CALL",
      "contractName": null,
      "contractAddress": "0x833d02521a41f175c389ec2a8c86f22e3de524db",
      "function": "setLPCapital(uint256,uint256)",
      "arguments": [
        "1",
        "1000000000000000000000000"
      ],
      "transaction": {
        "from": "0x7928251fe2d52cbecdce0fe9551ad9bf798347bc",
        "to": "0x833d02521a41f175c389ec2a8c86f22e3de524db",
        "gas": "0x1101f",
        "value": "0x0",
        "input": "0x94852345000000000000000000000000000000000000000000000000000000000000000100000000000000000000000000000000000000000000d3c21bcecceda1000000",
        "nonce": "0x23",
        "chainId": "0x61"
      },
      "additionalContracts": [],
      "isFixedGasLimit": false
    },
    {
      "hash": "0x58384ef03087b9bcaf3680860959e09fbc637a144f2911937d6dd9efd605d820",
      "transactionType": "CALL",
      "contractName": null,
      "contractAddress": "0x74f964e2bda482ae78834ff4f4fbc892e1b6aa33",
      "function": "updatePrice(uint256,uint256)",
      "arguments": [
        "1",
        "500000000000000000"
      ],
      "transaction": {
        "from": "0x7928251fe2d52cbecdce0fe9551ad9bf798347bc",
        "to": "0x74f964e2bda482ae78834ff4f4fbc892e1b6aa33",
        "gas": "0x2df98",
        "value": "0x0",
        "input": "0x82367b2d000000000000000000000000000000000000000000000000000000000000000100000000000000000000000000000000000000000000000006f05b59d3b20000",
        "nonce": "0x24",
        "chainId": "0x61"
      },
      "additionalContracts": [],
      "isFixedGasLimit": false
    },
    {
      "hash": "0x6e77103b59796ea746e9bc46cb4d2529da51d238503248d44dde7cf5208f9c1b",
      "transactionType": "CALL",
      "contractName": null,
      "contractAddress": "0x6738828760e8d2eb8cd892c5a15ad5d994d7995c",
      "function": "createMarket(address,uint256)",
      "arguments": [
        "0x7928251fE2D52CBECDCe0Fe9551aD9BF798347bc",
        "5000000000000000000000000"
      ],
      "transaction": {
        "from": "0x7928251fe2d52cbecdce0fe9551ad9bf798347bc",
        "to": "0x6738828760e8d2eb8cd892c5a15ad5d994d7995c",
        "gas": "0x314b9",
        "value": "0x0",
        "input": "0x34b62dd90000000000000000000000007928251fe2d52cbecdce0fe9551ad9bf798347bc0000000000000000000000000000000000000000000422ca8b0a00a425000000",
        "nonce": "0x25",
        "chainId": "0x61"
      },
      "additionalContracts": [],
      "isFixedGasLimit": false
    },
    {
      "hash": "0xc75e41fccbaea5eb632770dbe4e9d0dee5e6c33036b8251e5af07157746c93fd",
      "transactionType": "CALL",
      "contractName": null,
      "contractAddress": "0x74f964e2bda482ae78834ff4f4fbc892e1b6aa33",
      "function": "configurePricing(uint256,address,uint256,uint256,uint256)",
      "arguments": [
        "2",
        "0x7928251fE2D52CBECDCe0Fe9551aD9BF798347bc",
        "3600",
        "1000",
        "50000000000000000000000000"
      ],
      "transaction": {
        "from": "0x7928251fe2d52cbecdce0fe9551ad9bf798347bc",
        "to": "0x74f964e2bda482ae78834ff4f4fbc892e1b6aa33",
        "gas": "0x29eab",
        "value": "0x0",
        "input": "0xdfe383bc00000000000000000000000000000000000000000000000000000000000000020000000000000000000000007928251fe2d52cbecdce0fe9551ad9bf798347bc0000000000000000000000000000000000000000000000000000000000000e1000000000000000000000000000000000000000000000000000000000000003e8000000000000000000000000000000000000000000295be96e64066972000000",
        "nonce": "0x26",
        "chainId": "0x61"
      },
      "additionalContracts": [],
      "isFixedGasLimit": false
    },
    {
      "hash": "0x58a19fa12b6a827762f68d1cf3b88a21b8feb5c183fb46734a1c96a0c2f877a2",
      "transactionType": "CALL",
      "contractName": null,
      "contractAddress": "0xa6ec543c82c564f9cdb9a7e7682c68a43d1af802",
      "function": "configureFunding(uint256,uint256,uint256,uint256)",
      "arguments": [
        "2",
        "125000000000000",
        "3600",
        "500000000000000000000000"
      ],
      "transaction": {
        "from": "0x7928251fe2d52cbecdce0fe9551ad9bf798347bc",
        "to": "0xa6ec543c82c564f9cdb9a7e7682c68a43d1af802",
        "gas": "0x29cbd",
        "value": "0x0",
        "input": "0x8433036e0000000000000000000000000000000000000000000000000000000000000002000000000000000000000000000000000000000000000000000071afd498d0000000000000000000000000000000000000000000000000000000000000000e100000000000000000000000000000000000000000000069e10de76676d0800000",
        "nonce": "0x27",
        "chainId": "0x61"
      },
      "additionalContracts": [],
      "isFixedGasLimit": false
    },
    {
      "hash": "0xcdff666a6499485d1588a6c7ae2e3cd3b80e88b5515c8251da80cf66048e9db2",
      "transactionType": "CALL",
      "contractName": null,
      "contractAddress": "0x833d02521a41f175c389ec2a8c86f22e3de524db",
      "function": "setRiskParams(uint256,uint256,uint256,uint256,uint256,uint256,uint256,uint256)",
      "arguments": [
        "2",
        "1000",
        "500",
        "10",
        "50000000000000000",
        "500000000000000000",
        "800000000000000000",
        "500"
      ],
      "transaction": {
        "from": "0x7928251fe2d52cbecdce0fe9551ad9bf798347bc",
        "to": "0x833d02521a41f175c389ec2a8c86f22e3de524db",
        "gas": "0x50c7e",
        "value": "0x0",
        "input": "0x30051dae000000000000000000000000000000000000000000000000000000000000000200000000000000000000000000000000000000000000000000000000000003e800000000000000000000000000000000000000000000000000000000000001f4000000000000000000000000000000000000000000000000000000000000000a00000000000000000000000000000000000000000000000000b1a2bc2ec5000000000000000000000000000000000000000000000000000006f05b59d3b200000000000000000000000000000000000000000000000000000b1a2bc2ec50000000000000000000000000000000000000000000000000000000000000000001f4",
        "nonce": "0x28",
        "chainId": "0x61"
      },
      "additionalContracts": [],
      "isFixedGasLimit": false
    },
    {
      "hash": "0x6eded5b0b4246f225611d86f38699939761390e368dd88a645bae2e43eaaa888",
      "transactionType": "CALL",
      "contractName": null,
      "contractAddress": "0x833d02521a41f175c389ec2a8c86f22e3de524db",
      "function": "setLPCapital(uint256,uint256)",
      "arguments": [
        "2",
        "1000000000000000000000000"
      ],
      "transaction": {
        "from": "0x7928251fe2d52cbecdce0fe9551ad9bf798347bc",
        "to": "0x833d02521a41f175c389ec2a8c86f22e3de524db",
        "gas": "0x1101f",
        "value": "0x0",
        "input": "0x94852345000000000000000000000000000000000000000000000000000000000000000200000000000000000000000000000000000000000000d3c21bcecceda1000000",
        "nonce": "0x29",
        "chainId": "0x61"
      },
      "additionalContracts": [],
      "isFixedGasLimit": false
    },
    {
      "hash": "0x6cde9325e0c5d3304b9bd76761cdba9123ffea26e0a0fdf17762e6d430a083f4",
      "transactionType": "CALL",
      "contractName": null,
      "contractAddress": "0x74f964e2bda482ae78834ff4f4fbc892e1b6aa33",
      "function": "updatePrice(uint256,uint256)",
      "arguments": [
        "2",
        "891000000000000000"
      ],
      "transaction": {
        "from": "0x7928251fe2d52cbecdce0fe9551ad9bf798347bc",
        "to": "0x74f964e2bda482ae78834ff4f4fbc892e1b6aa33",
        "gas": "0x2b6cb",
        "value": "0x0",
        "input": "0x82367b2d00000000000000000000000000000000000000000000000000000000000000020000000000000000000000000000000000000000000000000c5d77c77edf8000",
        "nonce": "0x2a",
        "chainId": "0x61"
      },
      "additionalContracts": [],
      "isFixedGasLimit": false
    },
    {
      "hash": "0x8082ef9c053fba4c566ea6e65be5f6b25b399c48d21eadc6214316f43e270c92",
      "transactionType": "CALL",
      "contractName": null,
      "contractAddress": "0x6738828760e8d2eb8cd892c5a15ad5d994d7995c",
      "function": "createMarket(address,uint256)",
      "arguments": [
        "0x7928251fE2D52CBECDCe0Fe9551aD9BF798347bc",
        "5000000000000000000000000"
      ],
      "transaction": {
        "from": "0x7928251fe2d52cbecdce0fe9551ad9bf798347bc",
        "to": "0x6738828760e8d2eb8cd892c5a15ad5d994d7995c",
        "gas": "0x314b9",
        "value": "0x0",
        "input": "0x34b62dd90000000000000000000000007928251fe2d52cbecdce0fe9551ad9bf798347bc0000000000000000000000000000000000000000000422ca8b0a00a425000000",
        "nonce": "0x2b",
        "chainId": "0x61"
      },
      "additionalContracts": [],
      "isFixedGasLimit": false
    },
    {
      "hash": "0x6ecfc8333e98ddf88caa8158340df72d29f7083d8f4a47ff4275209bd5bad223",
      "transactionType": "CALL",
      "contractName": null,
      "contractAddress": "0x74f964e2bda482ae78834ff4f4fbc892e1b6aa33",
      "function": "configurePricing(uint256,address,uint256,uint256,uint256)",
      "arguments": [
        "3",
        "0x7928251fE2D52CBECDCe0Fe9551aD9BF798347bc",
        "3600",
        "1000",
        "50000000000000000000000000"
      ],
      "transaction": {
        "from": "0x7928251fe2d52cbecdce0fe9551ad9bf798347bc",
        "to": "0x74f964e2bda482ae78834ff4f4fbc892e1b6aa33",
        "gas": "0x29eab",
        "value": "0x0",
        "input": "0xdfe383bc00000000000000000000000000000000000000000000000000000000000000030000000000000000000000007928251fe2d52cbecdce0fe9551ad9bf798347bc0000000000000000000000000000000000000000000000000000000000000e1000000000000000000000000000000000000000000000000000000000000003e8000000000000000000000000000000000000000000295be96e64066972000000",
        "nonce": "0x2c",
        "chainId": "0x61"
      },
      "additionalContracts": [],
      "isFixedGasLimit": false
    },
    {
      "hash": "0x4f9a3106d6b23d0a7fe7689e4a8cada6b5a386b108553e3b7c037756d9abe3bd",
      "transactionType": "CALL",
      "contractName": null,
      "contractAddress": "0xa6ec543c82c564f9cdb9a7e7682c68a43d1af802",
      "function": "configureFunding(uint256,uint256,uint256,uint256)",
      "arguments": [
        "3",
        "125000000000000",
        "3600",
        "500000000000000000000000"
      ],
      "transaction": {
        "from": "0x7928251fe2d52cbecdce0fe9551ad9bf798347bc",
        "to": "0xa6ec543c82c564f9cdb9a7e7682c68a43d1af802",
        "gas": "0x29cbd",
        "value": "0x0",
        "input": "0x8433036e0000000000000000000000000000000000000000000000000000000000000003000000000000000000000000000000000000000000000000000071afd498d0000000000000000000000000000000000000000000000000000000000000000e100000000000000000000000000000000000000000000069e10de76676d0800000",
        "nonce": "0x2d",
        "chainId": "0x61"
      },
      "additionalContracts": [],
      "isFixedGasLimit": false
    },
    {
      "hash": "0xcbfecf44aa3b73d659dcdef0b0d692c57eae359692466eac756712d20e1a2bee",
      "transactionType": "CALL",
      "contractName": null,
      "contractAddress": "0x833d02521a41f175c389ec2a8c86f22e3de524db",
      "function": "setRiskParams(uint256,uint256,uint256,uint256,uint256,uint256,uint256,uint256)",
      "arguments": [
        "3",
        "1000",
        "500",
        "10",
        "50000000000000000",
        "500000000000000000",
        "800000000000000000",
        "500"
      ],
      "transaction": {
        "from": "0x7928251fe2d52cbecdce0fe9551ad9bf798347bc",
        "to": "0x833d02521a41f175c389ec2a8c86f22e3de524db",
        "gas": "0x50c7e",
        "value": "0x0",
        "input": "0x30051dae000000000000000000000000000000000000000000000000000000000000000300000000000000000000000000000000000000000000000000000000000003e800000000000000000000000000000000000000000000000000000000000001f4000000000000000000000000000000000000000000000000000000000000000a00000000000000000000000000000000000000000000000000b1a2bc2ec5000000000000000000000000000000000000000000000000000006f05b59d3b200000000000000000000000000000000000000000000000000000b1a2bc2ec50000000000000000000000000000000000000000000000000000000000000000001f4",
        "nonce": "0x2e",
        "chainId": "0x61"
      },
      "additionalContracts": [],
      "isFixedGasLimit": false
    },
    {
      "hash": "0x86b98104f2975098938e614add4a9c9400fdc27d975613c81bbd0fb84e96dfaa",
      "transactionType": "CALL",
      "contractName": null,
      "contractAddress": "0x833d02521a41f175c389ec2a8c86f22e3de524db",
      "function": "setLPCapital(uint256,uint256)",
      "arguments": [
        "3",
        "1000000000000000000000000"
      ],
      "transaction": {
        "from": "0x7928251fe2d52cbecdce0fe9551ad9bf798347bc",
        "to": "0x833d02521a41f175c389ec2a8c86f22e3de524db",
        "gas": "0x1101f",
        "value": "0x0",
        "input": "0x94852345000000000000000000000000000000000000000000000000000000000000000300000000000000000000000000000000000000000000d3c21bcecceda1000000",
        "nonce": "0x2f",
        "chainId": "0x61"
      },
      "additionalContracts": [],
      "isFixedGasLimit": false
    },
    {
      "hash": "0x7269bf69b249d1e484cf1b90c2fa7f60b701877b15a0dd8695d9f6c396f8486a",
      "transactionType": "CALL",
      "contractName": null,
      "contractAddress": "0x74f964e2bda482ae78834ff4f4fbc892e1b6aa33",
      "function": "updatePrice(uint256,uint256)",
      "arguments": [
        "3",
        "10500000000000000"
      ],
      "transaction": {
        "from": "0x7928251fe2d52cbecdce0fe9551ad9bf798347bc",
        "to": "0x74f964e2bda482ae78834ff4f4fbc892e1b6aa33",
        "gas": "0x2df98",
        "value": "0x0",
        "input": "0x82367b2d000000000000000000000000000000000000000000000000000000000000000300000000000000000000000000000000000000000000000000254db1c2244000",
        "nonce": "0x30",
        "chainId": "0x61"
      },
      "additionalContracts": [],
      "isFixedGasLimit": false
    }
  ],
  "receipts": [
    {
      "status": "0x1",
      "cumulativeGasUsed": "0x23b06",
      "logs": [
        {
          "address": "0x6738828760e8d2eb8cd892c5a15ad5d994d7995c",
          "topics": [
            "0x557e20be357a3ff3fc08cf2b8e6986333057886a281d0409a7e751c3fd700ec0",
            "0x0000000000000000000000000000000000000000000000000000000000000001"
          ],
          "data": "0x0000000000000000000000007928251fe2d52cbecdce0fe9551ad9bf798347bc0000000000000000000000000000000000000000000422ca8b0a00a425000000",
          "blockHash": "0xa11cfcaeb0410040d61714dcd231c5c8a3e2c9d658539546e65b9c806f35b48d",
          "blockNumber": "0x54a5b33",
          "blockTimestamp": "0x6985bcf7",
          "transactionHash": "0xfe948e26603e0fd93a22958994146af97776acaafb69b5c732820522d6b15e04",
          "transactionIndex": "0x0",
          "logIndex": "0x0",
          "removed": false
        }
      ],
      "logsBloom": "0x00000000000000000000000000000000000000000000000000000000000000000000000000000002000000000000000000000040000000000000000000040000000000000000000000000000000001000000000000040000000000000000000000000000000000000000000000000000000000000000000000000000000000000000000000000000000000020000000000000000000000000000000000000000000000000000000000000000800000000000000000000000000000000000000000000000000000000000000000000000000000000000000000000000000040000040000000000000000000000000000000000000000000000000000000000000",
      "type": "0x0",
      "transactionHash": "0xfe948e26603e0fd93a22958994146af97776acaafb69b5c732820522d6b15e04",
      "transactionIndex": "0x0",
      "blockHash": "0xa11cfcaeb0410040d61714dcd231c5c8a3e2c9d658539546e65b9c806f35b48d",
      "blockNumber": "0x54a5b33",
      "gasUsed": "0x23b06",
      "effectiveGasPrice": "0x5f5e100",
      "from": "0x7928251fe2d52cbecdce0fe9551ad9bf798347bc",
      "to": "0x6738828760e8d2eb8cd892c5a15ad5d994d7995c",
      "contractAddress": null
    },
    {
      "status": "0x1",
      "cumulativeGasUsed": "0x42094",
      "logs": [
        {
          "address": "0x74f964e2bda482ae78834ff4f4fbc892e1b6aa33",
          "topics": [
            "0x30fa005fc3429e5c81f53bfd45a5982f4c9937070f077950e3a45e9d85a140c7",
            "0x0000000000000000000000000000000000000000000000000000000000000001"
          ],
          "data": "0x0000000000000000000000007928251fe2d52cbecdce0fe9551ad9bf798347bc0000000000000000000000000000000000000000000000000000000000000e10000000000000000000000000000000000000000000295be96e64066972000000",
          "blockHash": "0xa11cfcaeb0410040d61714dcd231c5c8a3e2c9d658539546e65b9c806f35b48d",
          "blockNumber": "0x54a5b33",
          "blockTimestamp": "0x6985bcf7",
          "transactionHash": "0x499d234580409f704fb040ab632f2fd398a1e96f0bef6f8bd601bbc4bf8011ce",
          "transactionIndex": "0x1",
          "logIndex": "0x1",
          "removed": false
        }
      ],
      "logsBloom": "0x00000000000000000000000000000000000000000000000000000000000000000000000000000000000000000000000000000000000000000000000000040000040000000000000000000000000000000000000800040000000000000000000000000000000000000000000000000000000000000000000000000000000000000000000000000000000000000000000000000000000000000000000000000000000000000000000000000000000000000000000010004000000000200000000000000000000400000000000000000000000000000000000000000000000040000000000000000000000000000000000000000000000000000000000000000000",
      "type": "0x0",
      "transactionHash": "0x499d234580409f704fb040ab632f2fd398a1e96f0bef6f8bd601bbc4bf8011ce",
      "transactionIndex": "0x1",
      "blockHash": "0xa11cfcaeb0410040d61714dcd231c5c8a3e2c9d658539546e65b9c806f35b48d",
      "blockNumber": "0x54a5b33",
      "gasUsed": "0x1e58e",
      "effectiveGasPrice": "0x5f5e100",
      "from": "0x7928251fe2d52cbecdce0fe9551ad9bf798347bc",
      "to": "0x74f964e2bda482ae78834ff4f4fbc892e1b6aa33",
      "contractAddress": null
    },
    {
      "status": "0x1",
      "cumulativeGasUsed": "0x5e9d6",
      "logs": [
        {
          "address": "0xa6ec543c82c564f9cdb9a7e7682c68a43d1af802",
          "topics": [
            "0xcae42b83c0aefa140e2c63a9adb3230f75a0f739fe7154ac5f07cc2fc5d02547",
            "0x0000000000000000000000000000000000000000000000000000000000000001"
          ],
          "data": "0x000000000000000000000000000000000000000000000000000071afd498d0000000000000000000000000000000000000000000000000000000000000000e100000000000000000000000000000000000000000000069e10de76676d0800000",
          "blockHash": "0xa11cfcaeb0410040d61714dcd231c5c8a3e2c9d658539546e65b9c806f35b48d",
          "blockNumber": "0x54a5b33",
          "blockTimestamp": "0x6985bcf7",
          "transactionHash": "0x6e77103b59796ea746e9bc46cb4d2529da51d238503248d44dde7cf5208f9c1b",
          "transactionIndex": "0x2",
          "logIndex": "0x2",
          "removed": false
        }
      ],
      "logsBloom": "0x00000000000000000800000000000000000000000000000000000000000000000000000000000000000000000000000000000000000000000000000000040000000000000000000000000002000000000000000000040000000000000000000000020000000000000000000000000000000000000000000000000000000000000000000000000000000000000000000000000000000000000000000000000000000000000000000000000000000000000000000000000000000000000000000000000000000000010000000000020000000000000000000000000000100040000000000000000000000000000000000000000000000000000000000000000000",
      "type": "0x0",
      "transactionHash": "0x6e77103b59796ea746e9bc46cb4d2529da51d238503248d44dde7cf5208f9c1b",
      "transactionIndex": "0x2",
      "blockHash": "0xa11cfcaeb0410040d61714dcd231c5c8a3e2c9d658539546e65b9c806f35b48d",
      "blockNumber": "0x54a5b33",
      "gasUsed": "0x1c942",
      "effectiveGasPrice": "0x5f5e100",
      "from": "0x7928251fe2d52cbecdce0fe9551ad9bf798347bc",
      "to": "0xa6ec543c82c564f9cdb9a7e7682c68a43d1af802",
      "contractAddress": null
    },
    {
      "status": "0x1",
      "cumulativeGasUsed": "0x95d98",
      "logs": [
        {
          "address": "0x833d02521a41f175c389ec2a8c86f22e3de524db",
          "topics": [
            "0x82943760bb2c05df74e0d910fe8461fbf763ead5ff7b29daeb45669e0d24acea",
            "0x0000000000000000000000000000000000000000000000000000000000000001"
          ],
          "data": "0x00000000000000000000000000000000000000000000000000000000000003e800000000000000000000000000000000000000000000000000000000000001f4000000000000000000000000000000000000000000000000000000000000000a",
          "blockHash": "0xa11cfcaeb0410040d61714dcd231c5c8a3e2c9d658539546e65b9c806f35b48d",
          "blockNumber": "0x54a5b33",
          "blockTimestamp": "0x6985bcf7",
          "transactionHash": "0x58384ef03087b9bcaf3680860959e09fbc637a144f2911937d6dd9efd605d820",
          "transactionIndex": "0x3",
          "logIndex": "0x3",
          "removed": false
        }
      ],
      "logsBloom": "0x00000000000000000000000000000000000000000000000000000004000000000000000000000000000000000000000000000000000000000000000000040000000000000000000000000000000000000000000000040000000000000000000000800000000000000000000000000000000000000000000000000000000000000000000000000000000000000000000000000000000000000100000000000000000000000000000000000000000000800000004000000000000000000000000000000000000000000000000000000000000000000000000000000000000040000000000000000000020000000000000000000000000000000000000000000000",
      "type": "0x0",
      "transactionHash": "0x58384ef03087b9bcaf3680860959e09fbc637a144f2911937d6dd9efd605d820",
      "transactionIndex": "0x3",
      "blockHash": "0xa11cfcaeb0410040d61714dcd231c5c8a3e2c9d658539546e65b9c806f35b48d",
      "blockNumber": "0x54a5b33",
      "gasUsed": "0x373c2",
      "effectiveGasPrice": "0x5f5e100",
      "from": "0x7928251fe2d52cbecdce0fe9551ad9bf798347bc",
      "to": "0x833d02521a41f175c389ec2a8c86f22e3de524db",
      "contractAddress": null
    },
    {
      "status": "0x1",
      "cumulativeGasUsed": "0xa17a9",
      "logs": [
        {
          "address": "0x833d02521a41f175c389ec2a8c86f22e3de524db",
          "topics": [
            "0x8850655c9c300d5636bfca8dadad9943094b005c7d809155ef37a80210ae3972",
            "0x0000000000000000000000000000000000000000000000000000000000000001"
          ],
          "data": "0x00000000000000000000000000000000000000000000d3c21bcecceda1000000",
          "blockHash": "0xa11cfcaeb0410040d61714dcd231c5c8a3e2c9d658539546e65b9c806f35b48d",
          "blockNumber": "0x54a5b33",
          "blockTimestamp": "0x6985bcf7",
          "transactionHash": "0x1c65ca9277f9d7c067f01f7647938b25d28e1892de12dc9985ef0b8f2c50212e",
          "transactionIndex": "0x4",
          "logIndex": "0x4",
          "removed": false
        }
      ],
      "logsBloom": "0x00000000000000000000000000000000000000000000000000800004000000000000000000000000000000000000000000000000000000000000000000040000000000000000000000000000000000000000000000040000000000000000000000800000000000000000000000000000000000000000000000000000000000000000000000000000000000000000000000000000000000000000000000000000000000000000000000000000000000000000004000000000000000000080000000000000000000000000000000000000004000000000000000000000000040000000000000000000000000000000000000000000000000000000000000000000",
      "type": "0x0",
      "transactionHash": "0x1c65ca9277f9d7c067f01f7647938b25d28e1892de12dc9985ef0b8f2c50212e",
      "transactionIndex": "0x4",
      "blockHash": "0xa11cfcaeb0410040d61714dcd231c5c8a3e2c9d658539546e65b9c806f35b48d",
      "blockNumber": "0x54a5b33",
      "gasUsed": "0xba11",
      "effectiveGasPrice": "0x5f5e100",
      "from": "0x7928251fe2d52cbecdce0fe9551ad9bf798347bc",
      "to": "0x833d02521a41f175c389ec2a8c86f22e3de524db",
      "contractAddress": null
    },
    {
      "status": "0x1",
      "cumulativeGasUsed": "0xc0ea2",
      "logs": [
        {
          "address": "0x74f964e2bda482ae78834ff4f4fbc892e1b6aa33",
          "topics": [
            "0xc6d3da45896ce1bca9d198309a2dbeea3c73a991748f8d88d796ffa06029de93",
            "0x0000000000000000000000000000000000000000000000000000000000000001"
          ],
          "data": "0x00000000000000000000000000000000000000000000000006f05b59d3b2000000000000000000000000000000000000000000000000000006f05b59d3b2000000000000000000000000000000000000000000000000000006f05b59d3b20000",
          "blockHash": "0xa11cfcaeb0410040d61714dcd231c5c8a3e2c9d658539546e65b9c806f35b48d",
          "blockNumber": "0x54a5b33",
          "blockTimestamp": "0x6985bcf7",
          "transactionHash": "0x1f2d7bf12dfaab243411207405b320a7f3089d8c08f88ed0d05aaf0ffc1951e4",
          "transactionIndex": "0x5",
          "logIndex": "0x5",
          "removed": false
        }
      ],
      "logsBloom": "0x00000000000000000000000000000000000000000000000000000000000000000000000000000000000000000000000000000000000000000000000004040000000000000000000000000000000000000000000800040000000000000000000000000000000000000000000000000000000000000000000000000000000000000000000000000000000000000000000000000000000000000000000000000000000000000000000000000000000000000800000000000000000000200000000000000000000500000000000000000000000000000000000000000000000040000000000000000000000000000000000000000000000000000000000000000000",
      "type": "0x0",
      "transactionHash": "0x1f2d7bf12dfaab243411207405b320a7f3089d8c08f88ed0d05aaf0ffc1951e4",
      "transactionIndex": "0x5",
      "blockHash": "0xa11cfcaeb0410040d61714dcd231c5c8a3e2c9d658539546e65b9c806f35b48d",
      "blockNumber": "0x54a5b33",
      "gasUsed": "0x1f6f9",
      "effectiveGasPrice": "0x5f5e100",
      "from": "0x7928251fe2d52cbecdce0fe9551ad9bf798347bc",
      "to": "0x74f964e2bda482ae78834ff4f4fbc892e1b6aa33",
      "contractAddress": null
    },
    {
      "status": "0x1",
      "cumulativeGasUsed": "0xe49a8",
      "logs": [
        {
          "address": "0x6738828760e8d2eb8cd892c5a15ad5d994d7995c",
          "topics": [
            "0x557e20be357a3ff3fc08cf2b8e6986333057886a281d0409a7e751c3fd700ec0",
            "0x0000000000000000000000000000000000000000000000000000000000000002"
          ],
          "data": "0x0000000000000000000000007928251fe2d52cbecdce0fe9551ad9bf798347bc0000000000000000000000000000000000000000000422ca8b0a00a425000000",
          "blockHash": "0xa11cfcaeb0410040d61714dcd231c5c8a3e2c9d658539546e65b9c806f35b48d",
          "blockNumber": "0x54a5b33",
          "blockTimestamp": "0x6985bcf7",
          "transactionHash": "0x58a19fa12b6a827762f68d1cf3b88a21b8feb5c183fb46734a1c96a0c2f877a2",
          "transactionIndex": "0x6",
          "logIndex": "0x6",
          "removed": false
        }
      ],
      "logsBloom": "0x04000000000000000000000000000000000000000000000000000000000000000000000000000002000000000000000000000040000000000000000000000000000000000000000000000000000001000000000000000000000000000000000000000000000000000000000000000000000000000000000000000000000000000000000000000000000000020000000000000000000000000000000000000000000000000000000000000100800000000000000000000000000000000000000000000000000000000000000000000000000000000000000000000000000000000040000000000000000000000000000000000000008000000000000000000000",
      "type": "0x0",
      "transactionHash": "0x58a19fa12b6a827762f68d1cf3b88a21b8feb5c183fb46734a1c96a0c2f877a2",
      "transactionIndex": "0x6",
      "blockHash": "0xa11cfcaeb0410040d61714dcd231c5c8a3e2c9d658539546e65b9c806f35b48d",
      "blockNumber": "0x54a5b33",
      "gasUsed": "0x23b06",
      "effectiveGasPrice": "0x5f5e100",
      "from": "0x7928251fe2d52cbecdce0fe9551ad9bf798347bc",
      "to": "0x6738828760e8d2eb8cd892c5a15ad5d994d7995c",
      "contractAddress": null
    },
    {
      "status": "0x1",
      "cumulativeGasUsed": "0x102f36",
      "logs": [
        {
          "address": "0x74f964e2bda482ae78834ff4f4fbc892e1b6aa33",
          "topics": [
            "0x30fa005fc3429e5c81f53bfd45a5982f4c9937070f077950e3a45e9d85a140c7",
            "0x0000000000000000000000000000000000000000000000000000000000000002"
          ],
          "data": "0x0000000000000000000000007928251fe2d52cbecdce0fe9551ad9bf798347bc0000000000000000000000000000000000000000000000000000000000000e10000000000000000000000000000000000000000000295be96e64066972000000",
          "blockHash": "0xa11cfcaeb0410040d61714dcd231c5c8a3e2c9d658539546e65b9c806f35b48d",
          "blockNumber": "0x54a5b33",
          "blockTimestamp": "0x6985bcf7",
          "transactionHash": "0x36874e5c4068969d38791e9e1725ff2abd84d89740bfb10ded6e35be5710dd6d",
          "transactionIndex": "0x7",
          "logIndex": "0x7",
          "removed": false
        }
      ],
      "logsBloom": "0x04000000000000000000000000000000000000000000000000000000000000000000000000000000000000000000000000000000000000000000000000000000040000000000000000000000000000000000000800000000000000000000000000000000000000000000000000000000000000000000000000000000000000000000000000000000000000000000000000000000000000000000000000000000000000000000000000000100000000000000000010004000000000200000000000000000000400000000000000000000000000000000000000000000000000000000000000000000000000000000000000000000008000000000000000000000",
      "type": "0x0",
      "transactionHash": "0x36874e5c4068969d38791e9e1725ff2abd84d89740bfb10ded6e35be5710dd6d",
      "transactionIndex": "0x7",
      "blockHash": "0xa11cfcaeb0410040d61714dcd231c5c8a3e2c9d658539546e65b9c806f35b48d",
      "blockNumber": "0x54a5b33",
      "gasUsed": "0x1e58e",
      "effectiveGasPrice": "0x5f5e100",
      "from": "0x7928251fe2d52cbecdce0fe9551ad9bf798347bc",
      "to": "0x74f964e2bda482ae78834ff4f4fbc892e1b6aa33",
      "contractAddress": null
    },
    {
      "status": "0x1",
      "cumulativeGasUsed": "0x1c942",
      "logs": [
        {
          "address": "0xa6ec543c82c564f9cdb9a7e7682c68a43d1af802",
          "topics": [
            "0xcae42b83c0aefa140e2c63a9adb3230f75a0f739fe7154ac5f07cc2fc5d02547",
            "0x0000000000000000000000000000000000000000000000000000000000000002"
          ],
          "data": "0x000000000000000000000000000000000000000000000000000071afd498d0000000000000000000000000000000000000000000000000000000000000000e100000000000000000000000000000000000000000000069e10de76676d0800000",
          "blockHash": "0x5edac8874871a432f1bdf1ae925e8eaabb12cca0ab3b7517dfbc6eeda2e7bd54",
          "blockNumber": "0x54a5b34",
          "blockTimestamp": "0x6985bcf8",
          "transactionHash": "0xcdff666a6499485d1588a6c7ae2e3cd3b80e88b5515c8251da80cf66048e9db2",
          "transactionIndex": "0x0",
          "logIndex": "0x0",
          "removed": false
        }
      ],
      "logsBloom": "0x04000000000000000800000000000000000000000000000000000000000000000000000000000000000000000000000000000000000000000000000000000000000000000000000000000002000000000000000000000000000000000000000000020000000000000000000000000000000000000000000000000000000000000000000000000000000000000000000000000000000000000000000000000000000000000000000000000100000000000000000000000000000000000000000000000000000000010000000000020000000000000000000000000000100000000000000000000000000000000000000000000000008000000000000000000000",
      "type": "0x0",
      "transactionHash": "0xcdff666a6499485d1588a6c7ae2e3cd3b80e88b5515c8251da80cf66048e9db2",
      "transactionIndex": "0x0",
      "blockHash": "0x5edac8874871a432f1bdf1ae925e8eaabb12cca0ab3b7517dfbc6eeda2e7bd54",
      "blockNumber": "0x54a5b34",
      "gasUsed": "0x1c942",
      "effectiveGasPrice": "0x5f5e100",
      "from": "0x7928251fe2d52cbecdce0fe9551ad9bf798347bc",
      "to": "0xa6ec543c82c564f9cdb9a7e7682c68a43d1af802",
      "contractAddress": null
    },
    {
      "status": "0x1",
      "cumulativeGasUsed": "0x53d04",
      "logs": [
        {
          "address": "0x833d02521a41f175c389ec2a8c86f22e3de524db",
          "topics": [
            "0x82943760bb2c05df74e0d910fe8461fbf763ead5ff7b29daeb45669e0d24acea",
            "0x0000000000000000000000000000000000000000000000000000000000000002"
          ],
          "data": "0x00000000000000000000000000000000000000000000000000000000000003e800000000000000000000000000000000000000000000000000000000000001f4000000000000000000000000000000000000000000000000000000000000000a",
          "blockHash": "0x5edac8874871a432f1bdf1ae925e8eaabb12cca0ab3b7517dfbc6eeda2e7bd54",
          "blockNumber": "0x54a5b34",
          "blockTimestamp": "0x6985bcf8",
          "transactionHash": "0xc75e41fccbaea5eb632770dbe4e9d0dee5e6c33036b8251e5af07157746c93fd",
          "transactionIndex": "0x1",
          "logIndex": "0x1",
          "removed": false
        }
      ],
      "logsBloom": "0x04000000000000000000000000000000000000000000000000000004000000000000000000000000000000000000000000000000000000000000000000000000000000000000000000000000000000000000000000000000000000000000000000800000000000000000000000000000000000000000000000000000000000000000000000000000000000000000000000000000000000000100000000000000000000000000000000000100000000800000004000000000000000000000000000000000000000000000000000000000000000000000000000000000000000000000000000000000020000000000000000000000008000000000000000000000",
      "type": "0x0",
      "transactionHash": "0xc75e41fccbaea5eb632770dbe4e9d0dee5e6c33036b8251e5af07157746c93fd",
      "transactionIndex": "0x1",
      "blockHash": "0x5edac8874871a432f1bdf1ae925e8eaabb12cca0ab3b7517dfbc6eeda2e7bd54",
      "blockNumber": "0x54a5b34",
      "gasUsed": "0x373c2",
      "effectiveGasPrice": "0x5f5e100",
      "from": "0x7928251fe2d52cbecdce0fe9551ad9bf798347bc",
      "to": "0x833d02521a41f175c389ec2a8c86f22e3de524db",
      "contractAddress": null
    },
    {
      "status": "0x1",
      "cumulativeGasUsed": "0x5f715",
      "logs": [
        {
          "address": "0x833d02521a41f175c389ec2a8c86f22e3de524db",
          "topics": [
            "0x8850655c9c300d5636bfca8dadad9943094b005c7d809155ef37a80210ae3972",
            "0x0000000000000000000000000000000000000000000000000000000000000002"
          ],
          "data": "0x00000000000000000000000000000000000000000000d3c21bcecceda1000000",
          "blockHash": "0x5edac8874871a432f1bdf1ae925e8eaabb12cca0ab3b7517dfbc6eeda2e7bd54",
          "blockNumber": "0x54a5b34",
          "blockTimestamp": "0x6985bcf8",
          "transactionHash": "0x6eded5b0b4246f225611d86f38699939761390e368dd88a645bae2e43eaaa888",
          "transactionIndex": "0x2",
          "logIndex": "0x2",
          "removed": false
        }
      ],
      "logsBloom": "0x04000000000000000000000000000000000000000000000000800004000000000000000000000000000000000000000000000000000000000000000000000000000000000000000000000000000000000000000000000000000000000000000000800000000000000000000000000000000000000000000000000000000000000000000000000000000000000000000000000000000000000000000000000000000000000000000000000100000000000000004000000000000000000080000000000000000000000000000000000000004000000000000000000000000000000000000000000000000000000000000000000000008000000000000000000000",
      "type": "0x0",
      "transactionHash": "0x6eded5b0b4246f225611d86f38699939761390e368dd88a645bae2e43eaaa888",
      "transactionIndex": "0x2",
      "blockHash": "0x5edac8874871a432f1bdf1ae925e8eaabb12cca0ab3b7517dfbc6eeda2e7bd54",
      "blockNumber": "0x54a5b34",
      "gasUsed": "0xba11",
      "effectiveGasPrice": "0x5f5e100",
      "from": "0x7928251fe2d52cbecdce0fe9551ad9bf798347bc",
      "to": "0x833d02521a41f175c389ec2a8c86f22e3de524db",
      "contractAddress": null
    },
    {
      "status": "0x1",
      "cumulativeGasUsed": "0x7ee1a",
      "logs": [
        {
          "address": "0x74f964e2bda482ae78834ff4f4fbc892e1b6aa33",
          "topics": [
            "0xc6d3da45896ce1bca9d198309a2dbeea3c73a991748f8d88d796ffa06029de93",
            "0x0000000000000000000000000000000000000000000000000000000000000002"
          ],
          "data": "0x0000000000000000000000000000000000000000000000000c5d77c77edf80000000000000000000000000000000000000000000000000000c5d77c77edf80000000000000000000000000000000000000000000000000000c5d77c77edf8000",
          "blockHash": "0x5edac8874871a432f1bdf1ae925e8eaabb12cca0ab3b7517dfbc6eeda2e7bd54",
          "blockNumber": "0x54a5b34",
          "blockTimestamp": "0x6985bcf8",
          "transactionHash": "0x4f9a3106d6b23d0a7fe7689e4a8cada6b5a386b108553e3b7c037756d9abe3bd",
          "transactionIndex": "0x3",
          "logIndex": "0x3",
          "removed": false
        }
      ],
      "logsBloom": "0x04000000000000000000000000000000000000000000000000000000000000000000000000000000000000000000000000000000000000000000000004000000000000000000000000000000000000000000000800000000000000000000000000000000000000000000000000000000000000000000000000000000000000000000000000000000000000000000000000000000000000000000000000000000000000000000000000000100000000000800000000000000000000200000000000000000000500000000000000000000000000000000000000000000000000000000000000000000000000000000000000000000008000000000000000000000",
      "type": "0x0",
      "transactionHash": "0x4f9a3106d6b23d0a7fe7689e4a8cada6b5a386b108553e3b7c037756d9abe3bd",
      "transactionIndex": "0x3",
      "blockHash": "0x5edac8874871a432f1bdf1ae925e8eaabb12cca0ab3b7517dfbc6eeda2e7bd54",
      "blockNumber": "0x54a5b34",
      "gasUsed": "0x1f705",
      "effectiveGasPrice": "0x5f5e100",
      "from": "0x7928251fe2d52cbecdce0fe9551ad9bf798347bc",
      "to": "0x74f964e2bda482ae78834ff4f4fbc892e1b6aa33",
      "contractAddress": null
    },
    {
      "status": "0x1",
      "cumulativeGasUsed": "0xa2920",
      "logs": [
        {
          "address": "0x6738828760e8d2eb8cd892c5a15ad5d994d7995c",
          "topics": [
            "0x557e20be357a3ff3fc08cf2b8e6986333057886a281d0409a7e751c3fd700ec0",
            "0x0000000000000000000000000000000000000000000000000000000000000003"
          ],
          "data": "0x0000000000000000000000007928251fe2d52cbecdce0fe9551ad9bf798347bc0000000000000000000000000000000000000000000422ca8b0a00a425000000",
          "blockHash": "0x5edac8874871a432f1bdf1ae925e8eaabb12cca0ab3b7517dfbc6eeda2e7bd54",
          "blockNumber": "0x54a5b34",
          "blockTimestamp": "0x6985bcf8",
          "transactionHash": "0x8082ef9c053fba4c566ea6e65be5f6b25b399c48d21eadc6214316f43e270c92",
          "transactionIndex": "0x4",
          "logIndex": "0x4",
          "removed": false
        }
      ],
      "logsBloom": "0x00000000000000000000000000000000000000000000000000000000000000000000000000000002000000000000000000000040020000000000000000000000000000000000000000000000000001000000000000000000000000000000000000000000000000000000000000000000000000000000000000000000000000000000000000000000000000020000000000000000000000000000000000000000000000000000000000000000800000000000000000800000000000000000400000000000000000000000000000000000000000000000000000000000000000000040000000000000000000000000000000000000000000000000000000000000",
      "type": "0x0",
      "transactionHash": "0x8082ef9c053fba4c566ea6e65be5f6b25b399c48d21eadc6214316f43e270c92",
      "transactionIndex": "0x4",
      "blockHash": "0x5edac8874871a432f1bdf1ae925e8eaabb12cca0ab3b7517dfbc6eeda2e7bd54",
      "blockNumber": "0x54a5b34",
      "gasUsed": "0x23b06",
      "effectiveGasPrice": "0x5f5e100",
      "from": "0x7928251fe2d52cbecdce0fe9551ad9bf798347bc",
      "to": "0x6738828760e8d2eb8cd892c5a15ad5d994d7995c",
      "contractAddress": null
    },
    {
      "status": "0x1",
      "cumulativeGasUsed": "0xc0eae",
      "logs": [
        {
          "address": "0x74f964e2bda482ae78834ff4f4fbc892e1b6aa33",
          "topics": [
            "0x30fa005fc3429e5c81f53bfd45a5982f4c9937070f077950e3a45e9d85a140c7",
            "0x0000000000000000000000000000000000000000000000000000000000000003"
          ],
          "data": "0x0000000000000000000000007928251fe2d52cbecdce0fe9551ad9bf798347bc0000000000000000000000000000000000000000000000000000000000000e10000000000000000000000000000000000000000000295be96e64066972000000",
          "blockHash": "0x5edac8874871a432f1bdf1ae925e8eaabb12cca0ab3b7517dfbc6eeda2e7bd54",
          "blockNumber": "0x54a5b34",
          "blockTimestamp": "0x6985bcf8",
          "transactionHash": "0x6ecfc8333e98ddf88caa8158340df72d29f7083d8f4a47ff4275209bd5bad223",
          "transactionIndex": "0x5",
          "logIndex": "0x5",
          "removed": false
        }
      ],
      "logsBloom": "0x00000000000000000000000000000000000000000000000000000000000000000000000000000000000000000000000000000000020000000000000000000000040000000000000000000000000000000000000800000000000000000000000000000000000000000000000000000000000000000000000000000000000000000000000000000000000000000000000000000000000000000000000000000000000000000000000000000000000000000000000010804000000000200000400000000000000400000000000000000000000000000000000000000000000000000000000000000000000000000000000000000000000000000000000000000000",
      "type": "0x0",
      "transactionHash": "0x6ecfc8333e98ddf88caa8158340df72d29f7083d8f4a47ff4275209bd5bad223",
      "transactionIndex": "0x5",
      "blockHash": "0x5edac8874871a432f1bdf1ae925e8eaabb12cca0ab3b7517dfbc6eeda2e7bd54",
      "blockNumber": "0x54a5b34",
      "gasUsed": "0x1e58e",
      "effectiveGasPrice": "0x5f5e100",
      "from": "0x7928251fe2d52cbecdce0fe9551ad9bf798347bc",
      "to": "0x74f964e2bda482ae78834ff4f4fbc892e1b6aa33",
      "contractAddress": null
    },
    {
      "status": "0x1",
      "cumulativeGasUsed": "0xdd7f0",
      "logs": [
        {
          "address": "0xa6ec543c82c564f9cdb9a7e7682c68a43d1af802",
          "topics": [
            "0xcae42b83c0aefa140e2c63a9adb3230f75a0f739fe7154ac5f07cc2fc5d02547",
            "0x0000000000000000000000000000000000000000000000000000000000000003"
          ],
          "data": "0x000000000000000000000000000000000000000000000000000071afd498d0000000000000000000000000000000000000000000000000000000000000000e100000000000000000000000000000000000000000000069e10de76676d0800000",
          "blockHash": "0x5edac8874871a432f1bdf1ae925e8eaabb12cca0ab3b7517dfbc6eeda2e7bd54",
          "blockNumber": "0x54a5b34",
          "blockTimestamp": "0x6985bcf8",
          "transactionHash": "0x6cde9325e0c5d3304b9bd76761cdba9123ffea26e0a0fdf17762e6d430a083f4",
          "transactionIndex": "0x6",
          "logIndex": "0x6",
          "removed": false
        }
      ],
      "logsBloom": "0x00000000000000000800000000000000000000000000000000000000000000000000000000000000000000000000000000000000020000000000000000000000000000000000000000000002000000000000000000000000000000000000000000020000000000000000000000000000000000000000000000000000000000000000000000000000000000000000000000000000000000000000000000000000000000000000000000000000000000000000000000800000000000000000400000000000000000010000000000020000000000000000000000000000100000000000000000000000000000000000000000000000000000000000000000000000",
      "type": "0x0",
      "transactionHash": "0x6cde9325e0c5d3304b9bd76761cdba9123ffea26e0a0fdf17762e6d430a083f4",
      "transactionIndex": "0x6",
      "blockHash": "0x5edac8874871a432f1bdf1ae925e8eaabb12cca0ab3b7517dfbc6eeda2e7bd54",
      "blockNumber": "0x54a5b34",
      "gasUsed": "0x1c942",
      "effectiveGasPrice": "0x5f5e100",
      "from": "0x7928251fe2d52cbecdce0fe9551ad9bf798347bc",
      "to": "0xa6ec543c82c564f9cdb9a7e7682c68a43d1af802",
      "contractAddress": null
    },
    {
      "status": "0x1",
      "cumulativeGasUsed": "0x114bb2",
      "logs": [
        {
          "address": "0x833d02521a41f175c389ec2a8c86f22e3de524db",
          "topics": [
            "0x82943760bb2c05df74e0d910fe8461fbf763ead5ff7b29daeb45669e0d24acea",
            "0x0000000000000000000000000000000000000000000000000000000000000003"
          ],
          "data": "0x00000000000000000000000000000000000000000000000000000000000003e800000000000000000000000000000000000000000000000000000000000001f4000000000000000000000000000000000000000000000000000000000000000a",
          "blockHash": "0x5edac8874871a432f1bdf1ae925e8eaabb12cca0ab3b7517dfbc6eeda2e7bd54",
          "blockNumber": "0x54a5b34",
          "blockTimestamp": "0x6985bcf8",
          "transactionHash": "0xcbfecf44aa3b73d659dcdef0b0d692c57eae359692466eac756712d20e1a2bee",
          "transactionIndex": "0x7",
          "logIndex": "0x7",
          "removed": false
        }
      ],
      "logsBloom": "0x00000000000000000000000000000000000000000000000000000004000000000000000000000000000000000000000000000000020000000000000000000000000000000000000000000000000000000000000000000000000000000000000000800000000000000000000000000000000000000000000000000000000000000000000000000000000000000000000000000000000000000100000000000000000000000000000000000000000000800000004000800000000000000000400000000000000000000000000000000000000000000000000000000000000000000000000000000000020000000000000000000000000000000000000000000000",
      "type": "0x0",
      "transactionHash": "0xcbfecf44aa3b73d659dcdef0b0d692c57eae359692466eac756712d20e1a2bee",
      "transactionIndex": "0x7",
      "blockHash": "0x5edac8874871a432f1bdf1ae925e8eaabb12cca0ab3b7517dfbc6eeda2e7bd54",
      "blockNumber": "0x54a5b34",
      "gasUsed": "0x373c2",
      "effectiveGasPrice": "0x5f5e100",
      "from": "0x7928251fe2d52cbecdce0fe9551ad9bf798347bc",
      "to": "0x833d02521a41f175c389ec2a8c86f22e3de524db",
      "contractAddress": null
    },
    {
      "status": "0x1",
      "cumulativeGasUsed": "0x1205c3",
      "logs": [
        {
          "address": "0x833d02521a41f175c389ec2a8c86f22e3de524db",
          "topics": [
            "0x8850655c9c300d5636bfca8dadad9943094b005c7d809155ef37a80210ae3972",
            "0x0000000000000000000000000000000000000000000000000000000000000003"
          ],
          "data": "0x00000000000000000000000000000000000000000000d3c21bcecceda1000000",
          "blockHash": "0x5edac8874871a432f1bdf1ae925e8eaabb12cca0ab3b7517dfbc6eeda2e7bd54",
          "blockNumber": "0x54a5b34",
          "blockTimestamp": "0x6985bcf8",
          "transactionHash": "0x86b98104f2975098938e614add4a9c9400fdc27d975613c81bbd0fb84e96dfaa",
          "transactionIndex": "0x8",
          "logIndex": "0x8",
          "removed": false
        }
      ],
      "logsBloom": "0x00000000000000000000000000000000000000000000000000800004000000000000000000000000000000000000000000000000020000000000000000000000000000000000000000000000000000000000000000000000000000000000000000800000000000000000000000000000000000000000000000000000000000000000000000000000000000000000000000000000000000000000000000000000000000000000000000000000000000000000004000800000000000000080400000000000000000000000000000000000004000000000000000000000000000000000000000000000000000000000000000000000000000000000000000000000",
      "type": "0x0",
      "transactionHash": "0x86b98104f2975098938e614add4a9c9400fdc27d975613c81bbd0fb84e96dfaa",
      "transactionIndex": "0x8",
      "blockHash": "0x5edac8874871a432f1bdf1ae925e8eaabb12cca0ab3b7517dfbc6eeda2e7bd54",
      "blockNumber": "0x54a5b34",
      "gasUsed": "0xba11",
      "effectiveGasPrice": "0x5f5e100",
      "from": "0x7928251fe2d52cbecdce0fe9551ad9bf798347bc",
      "to": "0x833d02521a41f175c389ec2a8c86f22e3de524db",
      "contractAddress": null
    },
    {
      "status": "0x1",
      "cumulativeGasUsed": "0x13fcbc",
      "logs": [
        {
          "address": "0x74f964e2bda482ae78834ff4f4fbc892e1b6aa33",
          "topics": [
            "0xc6d3da45896ce1bca9d198309a2dbeea3c73a991748f8d88d796ffa06029de93",
            "0x0000000000000000000000000000000000000000000000000000000000000003"
          ],
          "data": "0x00000000000000000000000000000000000000000000000000254db1c224400000000000000000000000000000000000000000000000000000254db1c224400000000000000000000000000000000000000000000000000000254db1c2244000",
          "blockHash": "0x5edac8874871a432f1bdf1ae925e8eaabb12cca0ab3b7517dfbc6eeda2e7bd54",
          "blockNumber": "0x54a5b34",
          "blockTimestamp": "0x6985bcf8",
          "transactionHash": "0x7269bf69b249d1e484cf1b90c2fa7f60b701877b15a0dd8695d9f6c396f8486a",
          "transactionIndex": "0x9",
          "logIndex": "0x9",
          "removed": false
        }
      ],
      "logsBloom": "0x00000000000000000000000000000000000000000000000000000000000000000000000000000000000000000000000000000000020000000000000004000000000000000000000000000000000000000000000800000000000000000000000000000000000000000000000000000000000000000000000000000000000000000000000000000000000000000000000000000000000000000000000000000000000000000000000000000000000000000800000000800000000000200000400000000000000500000000000000000000000000000000000000000000000000000000000000000000000000000000000000000000000000000000000000000000",
      "type": "0x0",
      "transactionHash": "0x7269bf69b249d1e484cf1b90c2fa7f60b701877b15a0dd8695d9f6c396f8486a",
      "transactionIndex": "0x9",
      "blockHash": "0x5edac8874871a432f1bdf1ae925e8eaabb12cca0ab3b7517dfbc6eeda2e7bd54",
      "blockNumber": "0x54a5b34",
      "gasUsed": "0x1f6f9",
      "effectiveGasPrice": "0x5f5e100",
      "from": "0x7928251fe2d52cbecdce0fe9551ad9bf798347bc",
      "to": "0x74f964e2bda482ae78834ff4f4fbc892e1b6aa33",
      "contractAddress": null
    }
  ],
  "libraries": [],
  "pending": [],
  "returns": {},
  "timestamp": 1770372345976,
  "chain": 97,
  "commit": "2bed035b"
}